:0400000042EF05F0D6
:10060000000012C009F013C00AF01A0E0B6E85EC40
:1006100003F013BE06D013500AE10A0E125CD8B0E4
:1006200006D01AC01BF0300E1A6E000E1C6E14C0DD
:1006300009F015C00AF01D0E0B6E85EC03F015BE17
:1006400006D015500AE10A0E145CD8B006D01DC0C1
:100650001EF0300E1D6E000E1F6EC00E34EC05F045
:10066000000E026E640E016EF1EC04F04D0E26ECED
:1006700005F0690E26EC05F06E0E26EC05F03A0E3C
:1006800026EC05F0200E26EC05F0000E176E000E8D
:10069000166E09D016501A0FD96EDA6ADF5026ECA2
:1006A00005F0164A172A16501A0FD96EDA6ADF506B
:1006B000D8A4F0D7200E26EC05F0530E26EC05F05A
:1006C000650E26EC05F0630E26EC05F0730E26ECA5
:1006D00005F03A0E26EC05F0200E26EC05F0000E93
:1006E000196E000E186E09D018501D0FD96EDA6AF7
:1006F000DF5026EC05F0184A192A18501D0FD96E44
:10070000DA6ADF50D8B41200EFD7000E116E000E77
:10071000106E09500A10D8A42ED00B50D96EDA6A88
:10072000300EDF6E104A112A0B501024D96EDA6A8F
:10073000DF6A12000B501024D96EDA6A09C001F08A
:100740000AC002F0000E046E0A0E036EB9EC04F04B
:100750000150300FDF6E104A112A09C001F00AC0A3
:1007600002F0000E046E0A0E036E77EC04F001C076
:1007700009F002C00AF00ABE05D00A50DBE1090404
:10078000D8B0D8D70B501024D96EDA6ADF6A000EC1
:100790000F6E000E0E6E1ED00B500E24D96EDA6A4C
:1007A000DF500D6E0E500B5C1024D96EDA6AFF0E0E
:1007B000D9260B500E24E16EE26ADFCFE7FF0E5020
:1007C0000B5C1024D96EDA6AFF0ED9260DC0DFFF4C
:1007D0000E4A0F2A10C001F011C002F0000E046E84
:1007E000020E036E77EC04F001500E5C0F50800A8D
:1007F0000C6E0250800A0C58D8B01200CDD7000EF3
:10080000946E000E956E839A380E34EC05F0030E4C
:10081000026EE80E016EF1EC04F0010E34EC05F00E
:10082000000E026E640E016EF1EC04F00E0E34EC5C
:1008300005F0000E026E640E016EF1EC04F0800E05
:1008400034EC05F0000E026E640E016EF1EC04F063
:10085000540E26EC05F0690E26EC05F06D0E26EC24
:1008600005F0650E26EC05F03A0E26EC05F0200E9C
:1008700026EC05F0000E256E000E246E000E236E91
:10088000000E226E000E216E010E206E20502110EF
:10089000D8B4FCD722C012F023C013F024C014F047
:1008A00025C015F001EC03F011EC05F0244A252ACF
:1008B00025BE0CD0255004E13C0E245CD8A006D007
:1008C000000E256E000E246E224A232A23BEDED798
:1008D000235004E13C0E225CD8A0D8D7000E236E32
:1008E000000E226E000E256E000E246ECFD7000E75
:1008F000066E04AE06D0036C041ED8B0042A010EA6
:10090000066E02AE06D0016C021ED8B0022A010E9D
:10091000061A000E086E000E076E03500410D8B4BD
:100920001CD0010E056E04D0D89003360436052A7B
:1009300004AEFAD7D890073608360350015C04504D
:100940000258D8A005D00350015E0450025A078017
:10095000D89004320332052EEDD70650D8B404D017
:10096000076C081ED8B0082A07C001F008C002F0C2
:100970001200000E066E02AE06D0016C021ED8B048
:10098000022A010E066E04AE04D0036C041ED8B019
:10099000042A03500410D8B418D0010E056E04D0F8
:1009A000D89003360436052A04AEFAD70350015C0A
:1009B00004500258D8A004D00350015E0450025ADB
:1009C000D89004320332052EF1D70650D8B404D0A3
:1009D000016C021ED8B0022A01C001F002C002F070
:1009E0001200000E056E000E046E10D0000E076E91
:1009F000000E066E064A072A07BEFCD7FB0E065CF1
:100A0000040E0758D8A0F6D7044A052A0150045C02
:100A10000550800A036E0250800A0358D8B01200B5
:100A2000E5D7000E096E000E086E000E026E640E11
:100A3000016EF1EC04F0084A092A09BEF6D7095004
:100A400004E10804D8B01200F0D71200086E08C004
:100A500082FF83868398838A000E026E0A0E016EDF
:100A6000F1EC04F0839A1200086E08C082FF8396AE
:100A70008398838A000E026E0A0E016EF1EC04F078
:0A0A8000839A12000001FFEF03F05B
:020000040020DA
:08000000FFFFFFFFFFFFFFFF00
:020000040030CA
:0E000000FF021F1EFF8381FF0FC00FE00F40A5
:00000001FF
